{
  "_format": "hh-sol-artifact-1",
  "contractName": "NotationEnseignant",
  "sourceName": "contracts/NotationEnseignant.sol",
  "abi": [
    {
      "inputs": [
        {
          "internalType": "address",
          "name": "_proprietaire",
          "type": "address"
        }
      ],
      "stateMutability": "nonpayable",
      "type": "constructor"
    },
    {
      "anonymous": false,
      "inputs": [
        {
          "indexed": true,
          "internalType": "uint256",
          "name": "id",
          "type": "uint256"
        },
        {
          "indexed": false,
          "internalType": "string",
          "name": "nom",
          "type": "string"
        }
      ],
      "name": "EnseignantAjoute",
      "type": "event"
    },
    {
      "anonymous": false,
      "inputs": [
        {
          "indexed": true,
          "internalType": "uint256",
          "name": "id",
          "type": "uint256"
        }
      ],
      "name": "EnseignantSupprime",
      "type": "event"
    },
    {
      "anonymous": false,
      "inputs": [
        {
          "indexed": true,
          "internalType": "uint256",
          "name": "teacherId",
          "type": "uint256"
        },
        {
          "indexed": false,
          "internalType": "uint256",
          "name": "note",
          "type": "uint256"
        }
      ],
      "name": "NoteAjoutee",
      "type": "event"
    },
    {
      "inputs": [
        {
          "internalType": "uint256",
          "name": "_teacherId",
          "type": "uint256"
        }
      ],
      "name": "aDejaVote",
      "outputs": [
        {
          "internalType": "bool",
          "name": "",
          "type": "bool"
        }
      ],
      "stateMutability": "view",
      "type": "function"
    },
    {
      "inputs": [
        {
          "internalType": "string",
          "name": "_nom",
          "type": "string"
        }
      ],
      "name": "ajouterEnseignant",
      "outputs": [],
      "stateMutability": "nonpayable",
      "type": "function"
    },
    {
      "inputs": [
        {
          "internalType": "uint256",
          "name": "",
          "type": "uint256"
        }
      ],
      "name": "enseignants",
      "outputs": [
        {
          "internalType": "string",
          "name": "nom",
          "type": "string"
        },
        {
          "internalType": "uint256",
          "name": "totalNotes",
          "type": "uint256"
        },
        {
          "internalType": "uint256",
          "name": "nombreVotes",
          "type": "uint256"
        },
        {
          "internalType": "bool",
          "name": "existe",
          "type": "bool"
        }
      ],
      "stateMutability": "view",
      "type": "function"
    },
    {
      "inputs": [
        {
          "internalType": "uint256",
          "name": "_teacherId",
          "type": "uint256"
        }
      ],
      "name": "getMoyenne",
      "outputs": [
        {
          "internalType": "uint256",
          "name": "",
          "type": "uint256"
        }
      ],
      "stateMutability": "view",
      "type": "function"
    },
    {
      "inputs": [
        {
          "internalType": "uint256",
          "name": "_teacherId",
          "type": "uint256"
        }
      ],
      "name": "getStatistiques",
      "outputs": [
        {
          "internalType": "string",
          "name": "nom",
          "type": "string"
        },
        {
          "internalType": "uint256",
          "name": "moyenne",
          "type": "uint256"
        },
        {
          "internalType": "uint256",
          "name": "nombreVotes",
          "type": "uint256"
        }
      ],
      "stateMutability": "view",
      "type": "function"
    },
    {
      "inputs": [],
      "name": "getTousEnseignants",
      "outputs": [
        {
          "internalType": "uint256[]",
          "name": "ids",
          "type": "uint256[]"
        },
        {
          "internalType": "string[]",
          "name": "noms",
          "type": "string[]"
        }
      ],
      "stateMutability": "view",
      "type": "function"
    },
    {
      "inputs": [],
      "name": "nombreEnseignants",
      "outputs": [
        {
          "internalType": "uint256",
          "name": "",
          "type": "uint256"
        }
      ],
      "stateMutability": "view",
      "type": "function"
    },
    {
      "inputs": [
        {
          "internalType": "uint256",
          "name": "_teacherId",
          "type": "uint256"
        },
        {
          "internalType": "uint256",
          "name": "_note",
          "type": "uint256"
        }
      ],
      "name": "noterEnseignant",
      "outputs": [],
      "stateMutability": "nonpayable",
      "type": "function"
    },
    {
      "inputs": [],
      "name": "proprietaire",
      "outputs": [
        {
          "internalType": "address",
          "name": "",
          "type": "address"
        }
      ],
      "stateMutability": "view",
      "type": "function"
    },
    {
      "inputs": [
        {
          "internalType": "uint256",
          "name": "_teacherId",
          "type": "uint256"
        }
      ],
      "name": "supprimerEnseignant",
      "outputs": [],
      "stateMutability": "nonpayable",
      "type": "function"
    }
  ],
  "bytecode": "0x60806040523480156200001157600080fd5b50604051620019ea380380620019ea833981810160405281019062000037919062000108565b600073ffffffffffffffffffffffffffffffffffffffff168173ffffffffffffffffffffffffffffffffffffffff161415620000aa576040517f08c379a0000000000000000000000000000000000000000000000000000000008152600401620000a19062000176565b60405180910390fd5b806000806101000a81548173ffffffffffffffffffffffffffffffffffffffff021916908373ffffffffffffffffffffffffffffffffffffffff16021790555050620001f7565b6000815190506200010281620001dd565b92915050565b6000602082840312156200011b57600080fd5b60006200012b84828501620000f1565b91505092915050565b60006200014360168362000198565b91507f416472657373652061646d696e20696e76616c696465000000000000000000006000830152602082019050919050565b60006020820190508181036000830152620001918162000134565b9050919050565b600082825260208201905092915050565b6000620001b682620001bd565b9050919050565b600073ffffffffffffffffffffffffffffffffffffffff82169050919050565b620001e881620001a9565b8114620001f457600080fd5b50565b6117e380620002076000396000f3fe608060405234801561001057600080fd5b506004361061009e5760003560e01c80633bf7b1a8116100665780633bf7b1a81461017357806379583ee5146101915780637a90e055146101af57806386b88a66146101df578063d92ca6a0146101fb5761009e565b80630d0b2e27146100a35780631edf5f2f146100d65780632019f612146101065780632934f9d4146101225780633a769fc014610154575b600080fd5b6100bd60048036038101906100b89190610ebc565b610217565b6040516100cd949392919061131b565b60405180910390f35b6100f060048036038101906100eb9190610ebc565b6102dc565b6040516100fd91906112a0565b60405180910390f35b610120600480360381019061011b9190610ee5565b610333565b005b61013c60048036038101906101379190610ebc565b610539565b60405161014b939291906112dd565b60405180910390f35b61015c6106cb565b60405161016a929190611269565b60405180910390f35b61017b61099e565b60405161018891906113e7565b60405180910390f35b6101996109a4565b6040516101a6919061124e565b60405180910390f35b6101c960048036038101906101c49190610ebc565b6109c8565b6040516101d691906113e7565b60405180910390f35b6101f960048036038101906101f49190610e7b565b610a97565b005b61021560048036038101906102109190610ebc565b610c09565b005b600260205280600052604060002060009150905080600001805461023a90611613565b80601f016020809104026020016040519081016040528092919081815260200182805461026690611613565b80156102b35780601f10610288576101008083540402835291602001916102b3565b820191906000526020600020905b81548152906001019060200180831161029657829003601f168201915b5050505050908060010154908060020154908060030160009054906101000a900460ff16905084565b60008033836040516020016102f2929190611222565b6040516020818303038152906040528051906020012090506003600082815260200190815260200160002060009054906101000a900460ff16915050919050565b816002600082815260200190815260200160002060030160009054906101000a900460ff16610397576040517f08c379a000000000000000000000000000000000000000000000000000000000815260040161038e90611387565b60405180910390fd5b600182101580156103a9575060058211155b6103e8576040517f08c379a00000000000000000000000000000000000000000000000000000000081526004016103df90611367565b60405180910390fd5b600033846040516020016103fd929190611222565b6040516020818303038152906040528051906020012090506003600082815260200190815260200160002060009054906101000a900460ff1615610476576040517f08c379a000000000000000000000000000000000000000000000000000000000815260040161046d906113c7565b60405180910390fd5b60016003600083815260200190815260200160002060006101000a81548160ff021916908315150217905550826002600086815260200190815260200160002060010160008282546104c89190611502565b925050819055506002600085815260200190815260200160002060020160008154809291906104f690611645565b9190505550837f49c95852ed4987357702449466b26e456ad69979205dd5c35ae7f091587c4ec38460405161052b91906113e7565b60405180910390a250505050565b6060600080836002600082815260200190815260200160002060030160009054906101000a900460ff166105a2576040517f08c379a000000000000000000000000000000000000000000000000000000000815260040161059990611387565b60405180910390fd5b6000600260008781526020019081526020016000206040518060800160405290816000820180546105d290611613565b80601f01602080910402602001604051908101604052809291908181526020018280546105fe90611613565b801561064b5780601f106106205761010080835404028352916020019161064b565b820191906000526020600020905b81548152906001019060200180831161062e57829003601f168201915b5050505050815260200160018201548152602001600282015481526020016003820160009054906101000a900460ff16151515158152505090506000808260400151146106ab57816040015182602001516106a69190611558565b6106ae565b60005b905081600001518183604001519550955095505050509193909250565b606080600080600190505b600154811161072a576002600082815260200190815260200160002060030160009054906101000a900460ff161561071757818061071390611645565b9250505b808061072290611645565b9150506106d6565b508067ffffffffffffffff81111561076b577f4e487b7100000000000000000000000000000000000000000000000000000000600052604160045260246000fd5b6040519080825280602002602001820160405280156107995781602001602082028036833780820191505090505b5092508067ffffffffffffffff8111156107dc577f4e487b7100000000000000000000000000000000000000000000000000000000600052604160045260246000fd5b60405190808252806020026020018201604052801561080f57816020015b60608152602001906001900390816107fa5790505b509150600080600190505b6001548111610997576002600082815260200190815260200160002060030160009054906101000a900460ff16156109845780858381518110610886577f4e487b7100000000000000000000000000000000000000000000000000000000600052603260045260246000fd5b6020026020010181815250506002600082815260200190815260200160002060000180546108b390611613565b80601f01602080910402602001604051908101604052809291908181526020018280546108df90611613565b801561092c5780601f106109015761010080835404028352916020019161092c565b820191906000526020600020905b81548152906001019060200180831161090f57829003601f168201915b505050505084838151811061096a577f4e487b7100000000000000000000000000000000000000000000000000000000600052603260045260246000fd5b6020026020010181905250818061098090611645565b9250505b808061098f90611645565b91505061081a565b5050509091565b60015481565b60008054906101000a900473ffffffffffffffffffffffffffffffffffffffff1681565b6000816002600082815260200190815260200160002060030160009054906101000a900460ff16610a2e576040517f08c379a0000000000000000000000000000000000000000000000000000000008152600401610a2590611387565b60405180910390fd5b600060026000858152602001908152602001600020600201541415610a565760009150610a91565b60026000848152602001908152602001600020600201546002600085815260200190815260200160002060010154610a8e9190611558565b91505b50919050565b60008054906101000a900473ffffffffffffffffffffffffffffffffffffffff1673ffffffffffffffffffffffffffffffffffffffff163373ffffffffffffffffffffffffffffffffffffffff1614610b25576040517f08c379a0000000000000000000000000000000000000000000000000000000008152600401610b1c906113a7565b60405180910390fd5b60016000815480929190610b3890611645565b919050555060405180608001604052808281526020016000815260200160008152602001600115158152506002600060015481526020019081526020016000206000820151816000019080519060200190610b94929190610d5b565b50602082015181600101556040820151816002015560608201518160030160006101000a81548160ff0219169083151502179055509050506001547f85cb4bb9a0acd3685944db90c5131ace7262867e29b5a93115eb91252f47ca5382604051610bfe91906112bb565b60405180910390a250565b60008054906101000a900473ffffffffffffffffffffffffffffffffffffffff1673ffffffffffffffffffffffffffffffffffffffff163373ffffffffffffffffffffffffffffffffffffffff1614610c97576040517f08c379a0000000000000000000000000000000000000000000000000000000008152600401610c8e906113a7565b60405180910390fd5b806002600082815260200190815260200160002060030160009054906101000a900460ff16610cfb576040517f08c379a0000000000000000000000000000000000000000000000000000000008152600401610cf290611387565b60405180910390fd5b60006002600084815260200190815260200160002060030160006101000a81548160ff021916908315150217905550817f1a51c9c0d580fff45ae62fac6e113eca30ee5f458e1c1cca2a3ea91b679ef3a960405160405180910390a25050565b828054610d6790611613565b90600052602060002090601f016020900481019282610d895760008555610dd0565b82601f10610da257805160ff1916838001178555610dd0565b82800160010185558215610dd0579182015b82811115610dcf578251825591602001919060010190610db4565b5b509050610ddd9190610de1565b5090565b5b80821115610dfa576000816000905550600101610de2565b5090565b6000610e11610e0c84611433565b611402565b905082815260208101848484011115610e2957600080fd5b610e348482856115d1565b509392505050565b600082601f830112610e4d57600080fd5b8135610e5d848260208601610dfe565b91505092915050565b600081359050610e7581611796565b92915050565b600060208284031215610e8d57600080fd5b600082013567ffffffffffffffff811115610ea757600080fd5b610eb384828501610e3c565b91505092915050565b600060208284031215610ece57600080fd5b6000610edc84828501610e66565b91505092915050565b60008060408385031215610ef857600080fd5b6000610f0685828601610e66565b9250506020610f1785828601610e66565b9150509250929050565b6000610f2d8383611055565b905092915050565b6000610f4183836111ed565b60208301905092915050565b610f5681611589565b82525050565b610f6d610f6882611589565b61168e565b82525050565b6000610f7e82611483565b610f8881856114be565b935083602082028501610f9a85611463565b8060005b85811015610fd65784840389528151610fb78582610f21565b9450610fc2836114a4565b925060208a01995050600181019050610f9e565b50829750879550505050505092915050565b6000610ff38261148e565b610ffd81856114cf565b935061100883611473565b8060005b838110156110395781516110208882610f35565b975061102b836114b1565b92505060018101905061100c565b5085935050505092915050565b61104f8161159b565b82525050565b600061106082611499565b61106a81856114e0565b935061107a8185602086016115e0565b61108381611778565b840191505092915050565b600061109982611499565b6110a381856114f1565b93506110b38185602086016115e0565b6110bc81611778565b840191505092915050565b60006110d4601e836114f1565b91507f4c61206e6f746520646f6974206574726520656e7472652031206574203500006000830152602082019050919050565b60006111146016836114f1565b91507f456e736569676e616e7420696e74726f757661626c65000000000000000000006000830152602082019050919050565b60006111546019836114f1565b91507f5365756c656d656e74206c652070726f707269657461697265000000000000006000830152602082019050919050565b60006111946022836114f1565b91507f566f7573206176657a2064656a61206e6f74652063657420656e736569676e6160008301527f6e740000000000000000000000000000000000000000000000000000000000006020830152604082019050919050565b6111f6816115c7565b82525050565b611205816115c7565b82525050565b61121c611217826115c7565b6116b2565b82525050565b600061122e8285610f5c565b60148201915061123e828461120b565b6020820191508190509392505050565b60006020820190506112636000830184610f4d565b92915050565b600060408201905081810360008301526112838185610fe8565b905081810360208301526112978184610f73565b90509392505050565b60006020820190506112b56000830184611046565b92915050565b600060208201905081810360008301526112d5818461108e565b905092915050565b600060608201905081810360008301526112f7818661108e565b905061130660208301856111fc565b61131360408301846111fc565b949350505050565b60006080820190508181036000830152611335818761108e565b905061134460208301866111fc565b61135160408301856111fc565b61135e6060830184611046565b95945050505050565b60006020820190508181036000830152611380816110c7565b9050919050565b600060208201905081810360008301526113a081611107565b9050919050565b600060208201905081810360008301526113c081611147565b9050919050565b600060208201905081810360008301526113e081611187565b9050919050565b60006020820190506113fc60008301846111fc565b92915050565b6000604051905081810181811067ffffffffffffffff8211171561142957611428611749565b5b8060405250919050565b600067ffffffffffffffff82111561144e5761144d611749565b5b601f19601f8301169050602081019050919050565b6000819050602082019050919050565b6000819050602082019050919050565b600081519050919050565b600081519050919050565b600081519050919050565b6000602082019050919050565b6000602082019050919050565b600082825260208201905092915050565b600082825260208201905092915050565b600082825260208201905092915050565b600082825260208201905092915050565b600061150d826115c7565b9150611518836115c7565b9250827fffffffffffffffffffffffffffffffffffffffffffffffffffffffffffffffff0382111561154d5761154c6116bc565b5b828201905092915050565b6000611563826115c7565b915061156e836115c7565b92508261157e5761157d6116eb565b5b828204905092915050565b6000611594826115a7565b9050919050565b60008115159050919050565b600073ffffffffffffffffffffffffffffffffffffffff82169050919050565b6000819050919050565b82818337600083830152505050565b60005b838110156115fe5780820151818401526020810190506115e3565b8381111561160d576000848401525b50505050565b6000600282049050600182168061162b57607f821691505b6020821081141561163f5761163e61171a565b5b50919050565b6000611650826115c7565b91507fffffffffffffffffffffffffffffffffffffffffffffffffffffffffffffffff821415611683576116826116bc565b5b600182019050919050565b6000611699826116a0565b9050919050565b60006116ab82611789565b9050919050565b6000819050919050565b7f4e487b7100000000000000000000000000000000000000000000000000000000600052601160045260246000fd5b7f4e487b7100000000000000000000000000000000000000000000000000000000600052601260045260246000fd5b7f4e487b7100000000000000000000000000000000000000000000000000000000600052602260045260246000fd5b7f4e487b7100000000000000000000000000000000000000000000000000000000600052604160045260246000fd5b6000601f19601f8301169050919050565b60008160601b9050919050565b61179f816115c7565b81146117aa57600080fd5b5056fea26469706673582212201c9b3239b9372782cc50630bc02fadd39dc61aad4ff8e9300ed5d8f84f72f77f64736f6c63430008000033",
  "linkReferences": {},
  "deployedLinkReferences": {}
}